{
  "_format": "hh3-artifact-1",
  "contractName": "VerifiableCredentialIssuer",
  "sourceName": "contracts/VerifiableCredentialIssuer.sol",
  "abi": [
    {
      "inputs": [],
      "stateMutability": "nonpayable",
      "type": "constructor"
    },
    {
      "anonymous": false,
      "inputs": [
        {
          "indexed": true,
          "internalType": "bytes32",
          "name": "credentialId",
          "type": "bytes32"
        },
        {
          "indexed": true,
          "internalType": "address",
          "name": "subject",
          "type": "address"
        },
        {
          "indexed": false,
          "internalType": "string",
          "name": "data",
          "type": "string"
        }
      ],
      "name": "CredentialIssued",
      "type": "event"
    },
    {
      "anonymous": false,
      "inputs": [
        {
          "indexed": true,
          "internalType": "bytes32",
          "name": "credentialId",
          "type": "bytes32"
        }
      ],
      "name": "CredentialRevoked",
      "type": "event"
    },
    {
      "inputs": [
        {
          "internalType": "bytes32",
          "name": "",
          "type": "bytes32"
        }
      ],
      "name": "credentials",
      "outputs": [
        {
          "internalType": "address",
          "name": "subject",
          "type": "address"
        },
        {
          "internalType": "string",
          "name": "data",
          "type": "string"
        },
        {
          "internalType": "uint256",
          "name": "issuedAt",
          "type": "uint256"
        },
        {
          "internalType": "bool",
          "name": "revoked",
          "type": "bool"
        }
      ],
      "stateMutability": "view",
      "type": "function"
    },
    {
      "inputs": [
        {
          "internalType": "bytes32",
          "name": "credentialId",
          "type": "bytes32"
        }
      ],
      "name": "getCredential",
      "outputs": [
        {
          "internalType": "address",
          "name": "subject",
          "type": "address"
        },
        {
          "internalType": "string",
          "name": "data",
          "type": "string"
        },
        {
          "internalType": "uint256",
          "name": "issuedAt",
          "type": "uint256"
        },
        {
          "internalType": "bool",
          "name": "revoked",
          "type": "bool"
        }
      ],
      "stateMutability": "view",
      "type": "function"
    },
    {
      "inputs": [
        {
          "internalType": "address",
          "name": "subject",
          "type": "address"
        }
      ],
      "name": "getSubjectCredentials",
      "outputs": [
        {
          "internalType": "bytes32[]",
          "name": "",
          "type": "bytes32[]"
        }
      ],
      "stateMutability": "view",
      "type": "function"
    },
    {
      "inputs": [
        {
          "internalType": "bytes32",
          "name": "credentialId",
          "type": "bytes32"
        }
      ],
      "name": "isCredentialValid",
      "outputs": [
        {
          "internalType": "bool",
          "name": "",
          "type": "bool"
        }
      ],
      "stateMutability": "view",
      "type": "function"
    },
    {
      "inputs": [
        {
          "internalType": "address",
          "name": "subject",
          "type": "address"
        },
        {
          "internalType": "string",
          "name": "data",
          "type": "string"
        }
      ],
      "name": "issueCredential",
      "outputs": [
        {
          "internalType": "bytes32",
          "name": "",
          "type": "bytes32"
        }
      ],
      "stateMutability": "nonpayable",
      "type": "function"
    },
    {
      "inputs": [],
      "name": "owner",
      "outputs": [
        {
          "internalType": "address",
          "name": "",
          "type": "address"
        }
      ],
      "stateMutability": "view",
      "type": "function"
    },
    {
      "inputs": [
        {
          "internalType": "bytes32",
          "name": "credentialId",
          "type": "bytes32"
        }
      ],
      "name": "revokeCredential",
      "outputs": [],
      "stateMutability": "nonpayable",
      "type": "function"
    },
    {
      "inputs": [
        {
          "internalType": "address",
          "name": "",
          "type": "address"
        },
        {
          "internalType": "uint256",
          "name": "",
          "type": "uint256"
        }
      ],
      "name": "subjectCredentials",
      "outputs": [
        {
          "internalType": "bytes32",
          "name": "",
          "type": "bytes32"
        }
      ],
      "stateMutability": "view",
      "type": "function"
    }
  ],
  "bytecode": "0x6080604052348015600e575f5ffd5b505f80546001600160a01b03191633179055610b8d8061002d5f395ff3fe608060405234801561000f575f5ffd5b5060043610610085575f3560e01c806393701bcd1161005857806393701bcd14610123578063c3c00f7414610143578063ca6eec7814610156578063d1be48831461016b575f5ffd5b8063299d0348146100895780636dc158eb146100b55780638da5cb5b146100d857806390c7c49c14610102575b5f5ffd5b61009c610097366004610822565b61017e565b6040516100ac9493929190610839565b60405180910390f35b6100c86100c3366004610822565b61023b565b60405190151581526020016100ac565b5f546100ea906001600160a01b031681565b6040516001600160a01b0390911681526020016100ac565b6101156101103660046108a8565b61032e565b6040519081526020016100ac565b610136610131366004610926565b6104f2565b6040516100ac919061093f565b610115610151366004610981565b61055b565b610169610164366004610822565b610586565b005b61009c610179366004610822565b6106d8565b600160208190525f9182526040909120805491810180546001600160a01b03909316926101aa906109a9565b80601f01602080910402602001604051908101604052809291908181526020018280546101d6906109a9565b80156102215780601f106101f857610100808354040283529160200191610221565b820191905f5260205f20905b81548152906001019060200180831161020457829003601f168201915b50505050600283015460039093015491929160ff16905084565b5f81815260016020818152604080842081516080810190925280546001600160a01b0316825292830180548594929384019190610277906109a9565b80601f01602080910402602001604051908101604052809291908181526020018280546102a3906109a9565b80156102ee5780601f106102c5576101008083540402835291602001916102ee565b820191905f5260205f20905b8154815290600101906020018083116102d157829003601f168201915b50505091835250506002820154602082015260039091015460ff1615156040918201528101519091501580159061032757508060600151155b9392505050565b5f80546001600160a01b0316331461038d5760405162461bcd60e51b815260206004820152601f60248201527f536f6d656e7465206f20656d6973736f7220706f64652065786563757461720060448201526064015b60405180910390fd5b5f848484426040516020016103a594939291906109e1565b6040516020818303038152906040528051906020012090506040518060800160405280866001600160a01b0316815260200185858080601f0160208091040260200160405190810160405280939291908181526020018383808284375f9201829052509385525050426020808501919091526040938401839052858352600180825293909220845181546001600160a01b0319166001600160a01b0390911617815591840151919283019161045b915082610a6e565b506040828101516002838101919091556060909301516003909201805460ff1916921515929092179091556001600160a01b0387165f818152602093845282812080546001810182559082529390209092018390555182907fa6ffd16850fcbd5096e91ab4c80888a24a546d4f75ff4081d11beaa783ad9aef906104e29088908890610b29565b60405180910390a3949350505050565b6001600160a01b0381165f9081526002602090815260409182902080548351818402810184019094528084526060939283018282801561054f57602002820191905f5260205f20905b81548152602001906001019080831161053b575b50505050509050919050565b6002602052815f5260405f208181548110610574575f80fd5b905f5260205f20015f91509150505481565b5f546001600160a01b031633146105df5760405162461bcd60e51b815260206004820152601f60248201527f536f6d656e7465206f20656d6973736f7220706f6465206578656375746172006044820152606401610384565b5f8181526001602052604081206002015490036106365760405162461bcd60e51b815260206004820152601560248201527443726564656e6369616c206e616f2065786973746560581b6044820152606401610384565b5f8181526001602052604090206003015460ff16156106905760405162461bcd60e51b815260206004820152601660248201527543726564656e6369616c206a61207265766f6761646160501b6044820152606401610384565b5f818152600160208190526040808320600301805460ff19169092179091555182917f3cc2375f3fc7711ba27361cde93880f578742f9f050acee766bed662d117ba7291a250565b5f81815260016020818152604080842081516080810190925280546001600160a01b03168252928301805460609486948594859490939184019161071b906109a9565b80601f0160208091040260200160405190810160405280929190818152602001828054610747906109a9565b80156107925780601f1061076957610100808354040283529160200191610792565b820191905f5260205f20905b81548152906001019060200180831161077557829003601f168201915b50505091835250506002820154602082015260039091015460ff1615156040918201528101519091505f036108015760405162461bcd60e51b815260206004820152601560248201527443726564656e6369616c206e616f2065786973746560581b6044820152606401610384565b80516020820151604083015160609093015191989097509195509350915050565b5f60208284031215610832575f5ffd5b5035919050565b60018060a01b0385168152608060208201525f8451806080840152806020870160a085015e5f60a0828501015260a0601f19601f830116840101915050836040830152821515606083015295945050505050565b80356001600160a01b03811681146108a3575f5ffd5b919050565b5f5f5f604084860312156108ba575f5ffd5b6108c38461088d565b9250602084013567ffffffffffffffff8111156108de575f5ffd5b8401601f810186136108ee575f5ffd5b803567ffffffffffffffff811115610904575f5ffd5b866020828401011115610915575f5ffd5b939660209190910195509293505050565b5f60208284031215610936575f5ffd5b6103278261088d565b602080825282518282018190525f918401906040840190835b81811015610976578351835260209384019390920191600101610958565b509095945050505050565b5f5f60408385031215610992575f5ffd5b61099b8361088d565b946020939093013593505050565b600181811c908216806109bd57607f821691505b6020821081036109db57634e487b7160e01b5f52602260045260245ffd5b50919050565b6bffffffffffffffffffffffff198560601b16815282846014830137601492019182015260340192915050565b634e487b7160e01b5f52604160045260245ffd5b601f821115610a6957805f5260205f20601f840160051c81016020851015610a475750805b601f840160051c820191505b81811015610a66575f8155600101610a53565b50505b505050565b815167ffffffffffffffff811115610a8857610a88610a0e565b610a9c81610a9684546109a9565b84610a22565b6020601f821160018114610ace575f8315610ab75750848201515b5f19600385901b1c1916600184901b178455610a66565b5f84815260208120601f198516915b82811015610afd5787850151825560209485019460019092019101610add565b5084821015610b1a57868401515f19600387901b60f8161c191681555b50505050600190811b01905550565b60208152816020820152818360408301375f818301604090810191909152601f909201601f1916010191905056fea26469706673582212200ab3ef6d8fc635b73b9753acad2746da2b079a584c500b3c985619319876adbc64736f6c634300081c0033",
  "linkReferences": {},
  "deployedLinkReferences": {},
  "immutableReferences": {},
  "inputSourceName": "contracts/VerifiableCredentialIssuer.sol",
  "buildInfoId": "3ec4401e9936886a8488ceab83524223a3de6a73"
}